{
  "_format": "hh-sol-artifact-1",
  "contractName": "Certificate",
  "sourceName": "contracts/Certificate.sol",
  "abi": [
    {
      "inputs": [],
      "stateMutability": "nonpayable",
      "type": "constructor"
    },
    {
      "anonymous": false,
      "inputs": [
        {
          "indexed": false,
          "internalType": "string",
          "name": "certId",
          "type": "string"
        },
        {
          "indexed": false,
          "internalType": "string",
          "name": "studentName",
          "type": "string"
        },
        {
          "indexed": false,
          "internalType": "string",
          "name": "course",
          "type": "string"
        },
        {
          "indexed": false,
          "internalType": "string",
          "name": "issuer",
          "type": "string"
        }
      ],
      "name": "CertificateIssued",
      "type": "event"
    },
    {
      "inputs": [],
      "name": "admin",
      "outputs": [
        {
          "internalType": "address",
          "name": "",
          "type": "address"
        }
      ],
      "stateMutability": "view",
      "type": "function"
    },
    {
      "inputs": [
        {
          "internalType": "string",
          "name": "",
          "type": "string"
        }
      ],
      "name": "certificates",
      "outputs": [
        {
          "internalType": "string",
          "name": "studentName",
          "type": "string"
        },
        {
          "internalType": "string",
          "name": "course",
          "type": "string"
        },
        {
          "internalType": "string",
          "name": "issuer",
          "type": "string"
        },
        {
          "internalType": "uint256",
          "name": "issueDate",
          "type": "uint256"
        },
        {
          "internalType": "bool",
          "name": "isValid",
          "type": "bool"
        }
      ],
      "stateMutability": "view",
      "type": "function"
    },
    {
      "inputs": [
        {
          "internalType": "string",
          "name": "_certId",
          "type": "string"
        },
        {
          "internalType": "string",
          "name": "_studentName",
          "type": "string"
        },
        {
          "internalType": "string",
          "name": "_course",
          "type": "string"
        },
        {
          "internalType": "string",
          "name": "_issuer",
          "type": "string"
        }
      ],
      "name": "issueCertificate",
      "outputs": [],
      "stateMutability": "nonpayable",
      "type": "function"
    },
    {
      "inputs": [
        {
          "internalType": "string",
          "name": "_certId",
          "type": "string"
        }
      ],
      "name": "verifyCertificate",
      "outputs": [
        {
          "internalType": "string",
          "name": "",
          "type": "string"
        },
        {
          "internalType": "string",
          "name": "",
          "type": "string"
        },
        {
          "internalType": "string",
          "name": "",
          "type": "string"
        },
        {
          "internalType": "uint256",
          "name": "",
          "type": "uint256"
        },
        {
          "internalType": "bool",
          "name": "",
          "type": "bool"
        }
      ],
      "stateMutability": "view",
      "type": "function"
    }
  ],
  "bytecode": "0x6080604052348015600f57600080fd5b5033600160006101000a81548173ffffffffffffffffffffffffffffffffffffffff021916908373ffffffffffffffffffffffffffffffffffffffff1602179055506110a6806100606000396000f3fe608060405234801561001057600080fd5b506004361061004c5760003560e01c8063818a2994146100515780638b23d8751461006d5780638f2b91ea146100a1578063f851a440146100d5575b600080fd5b61006b600480360381019061006691906108dd565b6100f3565b005b610087600480360381019061008291906109b4565b6102ec565b604051610098959493929190610ab0565b60405180910390f35b6100bb60048036038101906100b691906109b4565b61056c565b6040516100cc959493929190610ab0565b60405180910390f35b6100dd61075d565b6040516100ea9190610b59565b60405180910390f35b600160009054906101000a900473ffffffffffffffffffffffffffffffffffffffff1673ffffffffffffffffffffffffffffffffffffffff163373ffffffffffffffffffffffffffffffffffffffff1614610183576040517f08c379a000000000000000000000000000000000000000000000000000000000815260040161017a90610be6565b60405180910390fd5b6000846040516101939190610c42565b908152602001604051809103902060040160009054906101000a900460ff16156101f2576040517f08c379a00000000000000000000000000000000000000000000000000000000081526004016101e990610ca5565b60405180910390fd5b6040518060a001604052808481526020018381526020018281526020014281526020016001151581525060008560405161022c9190610c42565b9081526020016040518091039020600082015181600001908161024f9190610ed1565b5060208201518160010190816102659190610ed1565b50604082015181600201908161027b9190610ed1565b506060820151816003015560808201518160040160006101000a81548160ff0219169083151502179055509050507f5b93630a6e8094d935e3329a9bc9d517943d525511136733ade8d280cce21cb6848484846040516102de9493929190610fa3565b60405180910390a150505050565b6060806060600080600080876040516103059190610c42565b90815260200160405180910390206040518060a001604052908160008201805461032e90610cf4565b80601f016020809104026020016040519081016040528092919081815260200182805461035a90610cf4565b80156103a75780601f1061037c576101008083540402835291602001916103a7565b820191906000526020600020905b81548152906001019060200180831161038a57829003601f168201915b505050505081526020016001820180546103c090610cf4565b80601f01602080910402602001604051908101604052809291908181526020018280546103ec90610cf4565b80156104395780601f1061040e57610100808354040283529160200191610439565b820191906000526020600020905b81548152906001019060200180831161041c57829003601f168201915b5050505050815260200160028201805461045290610cf4565b80601f016020809104026020016040519081016040528092919081815260200182805461047e90610cf4565b80156104cb5780601f106104a0576101008083540402835291602001916104cb565b820191906000526020600020905b8154815290600101906020018083116104ae57829003601f168201915b50505050508152602001600382015481526020016004820160009054906101000a900460ff1615151515815250509050806080015161053f576040517f08c379a000000000000000000000000000000000000000000000000000000000815260040161053690611050565b60405180910390fd5b80600001518160200151826040015183606001518460800151955095509550955095505091939590929450565b6000818051602081018201805184825260208301602085012081835280955050505050506000915090508060000180546105a590610cf4565b80601f01602080910402602001604051908101604052809291908181526020018280546105d190610cf4565b801561061e5780601f106105f35761010080835404028352916020019161061e565b820191906000526020600020905b81548152906001019060200180831161060157829003601f168201915b50505050509080600101805461063390610cf4565b80601f016020809104026020016040519081016040528092919081815260200182805461065f90610cf4565b80156106ac5780601f10610681576101008083540402835291602001916106ac565b820191906000526020600020905b81548152906001019060200180831161068f57829003601f168201915b5050505050908060020180546106c190610cf4565b80601f01602080910402602001604051908101604052809291908181526020018280546106ed90610cf4565b801561073a5780601f1061070f5761010080835404028352916020019161073a565b820191906000526020600020905b81548152906001019060200180831161071d57829003601f168201915b5050505050908060030154908060040160009054906101000a900460ff16905085565b600160009054906101000a900473ffffffffffffffffffffffffffffffffffffffff1681565b6000604051905090565b600080fd5b600080fd5b600080fd5b600080fd5b6000601f19601f8301169050919050565b7f4e487b7100000000000000000000000000000000000000000000000000000000600052604160045260246000fd5b6107ea826107a1565b810181811067ffffffffffffffff82111715610809576108086107b2565b5b80604052505050565b600061081c610783565b905061082882826107e1565b919050565b600067ffffffffffffffff821115610848576108476107b2565b5b610851826107a1565b9050602081019050919050565b82818337600083830152505050565b600061088061087b8461082d565b610812565b90508281526020810184848401111561089c5761089b61079c565b5b6108a784828561085e565b509392505050565b600082601f8301126108c4576108c3610797565b5b81356108d484826020860161086d565b91505092915050565b600080600080608085870312156108f7576108f661078d565b5b600085013567ffffffffffffffff81111561091557610914610792565b5b610921878288016108af565b945050602085013567ffffffffffffffff81111561094257610941610792565b5b61094e878288016108af565b935050604085013567ffffffffffffffff81111561096f5761096e610792565b5b61097b878288016108af565b925050606085013567ffffffffffffffff81111561099c5761099b610792565b5b6109a8878288016108af565b91505092959194509250565b6000602082840312156109ca576109c961078d565b5b600082013567ffffffffffffffff8111156109e8576109e7610792565b5b6109f4848285016108af565b91505092915050565b600081519050919050565b600082825260208201905092915050565b60005b83811015610a37578082015181840152602081019050610a1c565b60008484015250505050565b6000610a4e826109fd565b610a588185610a08565b9350610a68818560208601610a19565b610a71816107a1565b840191505092915050565b6000819050919050565b610a8f81610a7c565b82525050565b60008115159050919050565b610aaa81610a95565b82525050565b600060a0820190508181036000830152610aca8188610a43565b90508181036020830152610ade8187610a43565b90508181036040830152610af28186610a43565b9050610b016060830185610a86565b610b0e6080830184610aa1565b9695505050505050565b600073ffffffffffffffffffffffffffffffffffffffff82169050919050565b6000610b4382610b18565b9050919050565b610b5381610b38565b82525050565b6000602082019050610b6e6000830184610b4a565b92915050565b7f4f6e6c792061646d696e2063616e20697373756520636572746966696361746560008201527f7300000000000000000000000000000000000000000000000000000000000000602082015250565b6000610bd0602183610a08565b9150610bdb82610b74565b604082019050919050565b60006020820190508181036000830152610bff81610bc3565b9050919050565b600081905092915050565b6000610c1c826109fd565b610c268185610c06565b9350610c36818560208601610a19565b80840191505092915050565b6000610c4e8284610c11565b915081905092915050565b7f436572746966696361746520616c726561647920657869737473000000000000600082015250565b6000610c8f601a83610a08565b9150610c9a82610c59565b602082019050919050565b60006020820190508181036000830152610cbe81610c82565b9050919050565b7f4e487b7100000000000000000000000000000000000000000000000000000000600052602260045260246000fd5b60006002820490506001821680610d0c57607f821691505b602082108103610d1f57610d1e610cc5565b5b50919050565b60008190508160005260206000209050919050565b60006020601f8301049050919050565b600082821b905092915050565b600060088302610d877fffffffffffffffffffffffffffffffffffffffffffffffffffffffffffffffff82610d4a565b610d918683610d4a565b95508019841693508086168417925050509392505050565b6000819050919050565b6000610dce610dc9610dc484610a7c565b610da9565b610a7c565b9050919050565b6000819050919050565b610de883610db3565b610dfc610df482610dd5565b848454610d57565b825550505050565b600090565b610e11610e04565b610e1c818484610ddf565b505050565b5b81811015610e4057610e35600082610e09565b600181019050610e22565b5050565b601f821115610e8557610e5681610d25565b610e5f84610d3a565b81016020851015610e6e578190505b610e82610e7a85610d3a565b830182610e21565b50505b505050565b600082821c905092915050565b6000610ea860001984600802610e8a565b1980831691505092915050565b6000610ec18383610e97565b9150826002028217905092915050565b610eda826109fd565b67ffffffffffffffff811115610ef357610ef26107b2565b5b610efd8254610cf4565b610f08828285610e44565b600060209050601f831160018114610f3b5760008415610f29578287015190505b610f338582610eb5565b865550610f9b565b601f198416610f4986610d25565b60005b82811015610f7157848901518255600182019150602085019450602081019050610f4c565b86831015610f8e5784890151610f8a601f891682610e97565b8355505b6001600288020188555050505b505050505050565b60006080820190508181036000830152610fbd8187610a43565b90508181036020830152610fd18186610a43565b90508181036040830152610fe58185610a43565b90508181036060830152610ff98184610a43565b905095945050505050565b7f4365727469666963617465206e6f7420666f756e640000000000000000000000600082015250565b600061103a601583610a08565b915061104582611004565b602082019050919050565b600060208201905081810360008301526110698161102d565b905091905056fea264697066735822122036c0c898a0af2925631c1c785afd5b03e549334ec7430ccb2f3fd3ecee9537e764736f6c634300081c0033",
  "linkReferences": {},
  "deployedLinkReferences": {}
}